:020000040800F2
:10000000E0E30020610200081B2F0008ED29000832
:10001000192F00087D060008A94300080000000011
:10002000000000000000000000000000A101000826
:100030008907000800000000FD010008653B00087A
:100040007B0200087B0200087B0200087B0200089C
:100050007B0200087B0200087B0200087B0200088C
:100060007B0200087B0200087B0200087B0200087C
:100070007B0200087B0200087B020008990600084A
:100080007B0200087B0200087B0200087B0200085C
:100090007B0200087B0200087B0200087B0200084C
:1000A0007B0200087B0200087B0200087B0200083C
:1000B0007B0200087B020008253C00087B02000848
:1000C0007B0200087B0200087B0200087B0200081C
:1000D0007B0200086D4300087B0200087B020008D9
:1000E0008D0700087B0200087B0200087B020008E5
:1000F0007B0200087B0200087B0200087B020008EC
:100100007B0200087B0200087B0200087B020008DB
:10011000D93F00087B0200087B020008313C000840
:10012000A50600087B0200087B0200087B0200088D
:100130007B0200087B0200087B0200087B020008AB
:100140007B0200087B0200087B0200087B0200089B
:100150007B0200087B020008B10600087B02000851
:100160007B0200087B0200087B0200087B0200087B
:100170007B0200087B0200087B02000800000000F0
:100180007B0200087B020008DFF810D000F004F9C1
:1001900000480047514F0008AFF30080E0E3002023
:1001A0002C4B19680868B0E8F04F80F30988BFF35A
:1001B0006F8F4FF0000080F311887047000000003F
:1001C00008480068006880F308884FF0000080F35A
:1001D000148862B661B6BFF34F8FBFF36F8F00DF35
:1001E00000BF00BF08ED00E0DFF80C00016841F43B
:1001F00070010160704700BF88ED00E0EFF30980F7
:10020000BFF36F8F134B1A681EF0100F08BF20ED5D
:10021000108A20E9F04F106009B44FF0500080F3CD
:100220001188BFF34F8FBFF36F8F06F0BDFD4FF006
:10023000000080F3118809BC19680868B0E8F04F25
:100240001EF0100F08BFB0EC108A80F30988BFF3CE
:100250006F8F70472C000020EFF30580704700007F
:100260000648804706480047FEE7FEE7FEE7FEE750
:10027000FEE7FEE7FEE7FEE7FEE7FEE7153C0008C7
:10028000890100082DE9F05F0546002092469B4653
:1002900088460646814640241BE02846414647469C
:1002A000224600F069F853465A46C01A914110D3CD
:1002B00011461846224600F050F82D1A67EB010847
:1002C0004F4622460120002100F047F817EB0009B5
:1002D0004E41201EA4F10104DFDC484631462A4687
:1002E0004346BDE8F09F40EA01039B0703D009E0C5
:1002F00008C9121F08C0042AFAD203E011F8013B12
:1003000000F8013B521EF9D27047D2B201E000F86A
:10031000012B491EFBD270470022F6E710B51346A9
:100320000A4604461946FFF7F0FF204610BD30B5D7
:100330000B46014600202022012409E021FA02F5A3
:100340009D4205D303FA02F5491B04FA02F528443D
:10035000151EA2F10102F1DC30BD202A04DB203A97
:1003600000FA02F1002070479140C2F1200320FA08
:1003700003F3194390407047202A04DB203A21FA06
:1003800002F00021704721FA02F3D040C2F12002AE
:100390009140084319467047064C074D06E0E06857
:1003A00040F0010394E8070098471034AC42F6D3BC
:1003B000FFF7EEFE588300087883000870B58C18AC
:1003C00010F8015B15F0070301D110F8013B2A1169
:1003D00006D110F8012B03E010F8016B01F8016B56
:1003E0005B1EF9D12B0705D40023521E0DD401F852
:1003F000013BFAE710F8013BCB1A921C03E013F81B
:10040000015B01F8015B521EF9D5A142D8D300204F
:1004100070BD10B50146806B026C12F0500F05D014
:10042000026CD20626D500F06FFA10BD016C41F4C3
:100430000071016401688A6812F0405F17D1027E82
:10044000AAB9CA6A12F4700F02D08A6852050ED493
:100450004A6822F020024A60016C21F48071016434
:10046000016CC90403D4016C41F00101016400F086
:1004700049FA10BD806BC26CBDE8104008461047B9
:1004800010B5806B40210164416C41F0040141646E
:1004900000F03AFA10BD10B5806B00F034FA10BDD0
:1004A000464910B54A6822F440324A604A684368B7
:1004B0001A434A6001684A6822F480724A600168FF
:1004C0004A68036942EA03224A6001684A6822F0E6
:1004D00040724A6001684A6883681A434A6001684A
:1004E0008A6822F400628A6001688A68C3681A43D5
:1004F0008A60816A6FF07062D14201688A6822F076
:1005000070628A6001688A680CD0836A1A438A60C4
:1005100001688A6822F040528A6001688A68C36A6A
:100520001A4301E022F040528A6001688A6822F092
:1005300002028A6001688A68037E42EA43028A6096
:1005400090F82010002901684A680FD042F4006238
:100550004A6001684A6822F460424A6001684A6859
:10056000174C436A04EB43331A4301E022F4006260
:100570004A600168CA6A22F47002CA620168CA6AE3
:10058000838B104C04EB03531A43CA6201688A68D8
:1005900022F400728A6001688A6890F8303042EA7A
:1005A00043228A6001688A6822F480628A60016856
:1005B0008A68406942EA8020886010BD00230140BB
:1005C00000E0FFFF0000F0FFA0220249024800F017
:1005D00013BA000020DE0020200200202DE9F041A7
:1005E000174D04468021284600F09EFD8006070E28
:1005F0004021284600F098FD400647EA1066A914FD
:10060000104800F091FD304317D0072815D0002185
:1006100023690DA2084698472321236911A20020CF
:100620009847A06980474FF4FA741021284600F0DB
:1006300080FD204600F058FCF7E7BDE8F08100009F
:10064000000C024000080240756E6B6E6F776E20E2
:1006500068617264776172652D76657273696F6E19
:100660002E000000706C656173652072657365749F
:1006700020616E642D72657472792E00FEE7034668
:1006800010B50020024603E09C5C6040521C92B210
:100690008A42F9D310BD0000014800F0B3BA00004F
:1006A00030040020014800F0ADBA000068020020CC
:1006B000014800F0A7BA0000900400200168182348
:1006C000CAB2103AB2FBF3F2054B6FF30901032AE9
:1006D0009B5CC36500D9091D816508467047000011
:1006E000A878000810B5014600208B698A6A4FF08F
:1006F000C07453B1B3F5005F15D072B1012A0CD0AC
:10070000022A0AD0032A09D104E01AB1012A06D02C
:10071000022A03D1C96AC90100D5012010BDC96AE6
:10072000A142FAD010BD002AF7D0012AF2D0022A45
:10073000F3D0032AF3D010BD30B50468256825F442
:1007400080252560046863608368402B036803D0BC
:1007500099600068C26030BD9A600068C16030BDB9
:100760000748006840F0807005490860002005498E
:1007700048600846006840F00100086070470000CB
:10078000FCED00E0001000E07047000010B5084CE0
:100790002068800402D5601400F0C2FB2068400489
:1007A00005D5BDE810404FF4804000F0B9BB10BD46
:1007B000143C014072B6FEE778B50024009490F82E
:1007C0003C20012A19D0012280F83C200A68072326
:1007D0000568092A13D9EE680A3A02EB42029340EF
:1007E0009E43EE600B788A680A3B03EB43039A4012
:1007F0000368DD682A43DA6010E0022078BD2E69C4
:1008000002EB420293409E432E610B788A6803EB11
:1008100043039A4003681D692A431A614A681F23EB
:10082000072A13D205686E6B521E02EB82029340B8
:100830009E436E630B790A885B1E92B203EB8303BF
:100840009A4003685D6B2A435A6327E005680D2AC6
:1008500012D22E6BD21F02EB820293409E432E6374
:100860000B790A88DB1F92B203EB83039A4003687B
:100870001D6B2A431A6311E0EE6A0D3A02EB820205
:1008800093409E43EE620B790A880D3B92B203EBD4
:1008900083039A400368DD6A2A43DA62164B0568CF
:1008A000144A9D4206D10D68122D03D1556845F4B6
:1008B0008005556005689D4218D10B68102B01D04A
:1008C000112B13D1536843F40003536009681029B6
:1008D0000CD10A490A4A0968B1FBF2F101EB810126
:1008E000490000E0491E00910029FBD180F83C40FE
:1008F000002078BD00230140002001402800002096
:1009000040420F0070477047704770B504004FF0C9
:10091000000503D0206C002610B107E0012070BD57
:10092000204600F01DF8666484F83C60206CC00628
:1009300010D4206C20F4885040F00200206420463F
:10094000FFF7AEFD6664206C20F0020040F001006D
:10095000206400E0012584F83C60284670BD00005A
:1009600070B586B0064614216846FFF7D5FC1D49D0
:100970003068884234D11C480025016841F48071F8
:100980000160006800F48070059017481438016811
:1009900041F0040101600068694600F00400059020
:1009A0000C2000900320CDE90105104800F0C4FAA6
:1009B000104C0F48C4E900050015A560C4E90350B8
:1009C000400060618000A0614011C4E90705204635
:1009D000656200F0E7F908B1FFF7ECFEB463A663C7
:1009E00006B070BD002001404438024000080240BB
:1009F0001064024068020020F8B5044600200E464C
:100A0000009094F83C10012907D0012184F83C1093
:100A100021688B68DB0702D011E00220F8BD8B68EB
:100A200043F001038B604049404B0968B1FBF3F18F
:100A300001EB410100E0491E00910029FBD1216832
:100A40008B68DB0503D58B6823F480738B6021688A
:100A50008B68DB075DD0236C40F20165AB4343F448
:100A6000807323644968490505D5216C21F4005140
:100A700041F480512164216CC90404D5616C21F0DA
:100A80000601616400E0606484F83C00A16B2948C1
:100A9000274DC863A16B28480864A16B2748C86428
:100AA00021686FF0220008602068416841F0806191
:100AB00041602068816841F480718160216813463B
:100AC00032464C31A06B00F0D7F968681C49C0066B
:100AD000206806D0884224D1816811F0405F13D08D
:100AE0001FE08842F8D0174A904203D1D1F804237E
:100AF000D206F1D0144A904213D1D1F8041301F078
:100B00001F011029E8D30CE0816841F08041816029
:100B100007E0206C40F010002064606C40F00100A1
:100B200060640020F8BD00002800002040420F0053
:100B30000023014013040008970400088104000802
:100B40000020014000210140002201402DE9F04138
:100B50000446876D00F0FAFA064694F83500002541
:100B6000022806D08020606584F834500120BDE85A
:100B7000F0812068016821F0160101602068416958
:100B800021F080014161206C08B9A06C20B120687F
:100B9000016821F0080101602068016821F001016D
:100BA00001600CE000F0D2FA801B052807D9202054
:100BB0006065032084F8350084F83450D7E7206856
:100BC0000068C007EED194F85C103F208840B86000
:100BD000012084F8350084F834500020C7E790F8ED
:100BE0003510022903D0802141650120704705217D
:100BF00080F835100068016821F0010101600020D3
:100C0000704700002DE9F84304464FF00009CDF885
:100C1000009063484FF41651A56D0068B0FBF1F7E2
:100C20002E6894F85C10082000FA01F131420FD0D0
:100C300021680A6852070BD50A6822F004020A608C
:100C400094F85C108840A860606D40F00100606519
:100C500094F85C104FF0010808FA01F0304208D017
:100C600021684969090604D5A860606D40F002005A
:100C7000606594F85C1004208840304208D02168F8
:100C80000968890704D5A860606D40F004006065BC
:100C900094F85C1010208840304218D02168096810
:100CA000090714D5A86020680168490304D50068C5
:100CB000000308D5A16C07E00168C90503D40168E9
:100CC00021F008010160216C09B12046884794F8A1
:100CD0005C1020208840304231D021680968C90664
:100CE0002DD5A86094F8350005282068016806D045
:100CF000490347D5006800031DD4616C1CE021F056
:100D0000160101602068416921F080014161206C79
:100D100008B9A06C20B12068016821F008010160C9
:100D200094F85C103F208840A86084F8358084F8EF
:100D30003490216D1FE0E16B09B120468847606D5A
:100D400000282BD0606DC00714D0052084F8350032
:100D50002068016821F0010101600098401C0090AA
:100D6000B84203D820680068C007F6D184F83580FF
:100D700084F83490E16C002910D001B02046BDE821
:100D8000F04308470168C905D5D4016821F0100176
:100D9000016084F8358084F83490CCE7BDE8F883AE
:100DA000280000202DE9F041044600F0CFF9064666
:100DB0005CB1022084F83500002584F834502068A6
:100DC000016821F0010101600DE00120BDE8F08122
:100DD00000F0BCF9801B052805D9202060650320A0
:100DE00084F83500F2E720680068C007F0D1226877
:100DF000116820480140D4E901031843D4E90336BF
:100E00003343184363691843A3691843E3691843DC
:100E1000236A18430843616A042903D1D4E90B13F8
:100E200019430843106020684069666A20F0070192
:100E300030460E43012704280CD1A06A0643E06A1D
:100E400040B12046FFF74EFC20B14020606584F899
:100E50003570BAE7206846612046FFF72FFC94F80A
:100E60005C203F2191408160656584F835700020E9
:100E7000ACE700003F8010F02DE9F0410446866D9C
:100E800090F83400002501280DD0012084F83400AA
:100E900094F835700020012F07D084F83400022523
:100EA0002846BDE8F0810220FBE7022784F8357070
:100EB00060652046FFF740FC94F85C103F208840B6
:100EC000B0602068016841F016010160206C20B11B
:100ED0002068016841F0080101602068016841F064
:100EE00001010160DCE7000070B5044600F02EF956
:100EF0000546601C02D004480078044400F026F93E
:100F0000401BA042FAD370BD1C0000200349098891
:100F1000884201D101F03CBD70470000140200205E
:100F2000044910B50A68024202D00860FFF7EEFFDC
:100F300010BD0000143C01402DE9F84FDFF8BCA1C2
:100F40000022012503264FF00F090AF1040BAAF134
:100F5000040E00BF0B6805FA02F42340A34270D1CF
:100F60000F7907F00307012F01D0022F16D18768F0
:100F70004FEA420806FA08FC27EA0C07D1F80CC031
:100F80000CFA08FC4CEA070CC0F808C04768A743F5
:100F90000C79C4F3001494403C4344600C79E4435E
:100FA000A4070AD0C4684FEA420C06FA0CF7BC4307
:100FB0008F6807FA0CF72743C7600C7904F0030425
:100FC000022C12D1D40800EB840CDCF82040570727
:100FD000FF0E09FA07F824EA0804D1F8108008FA8D
:100FE00007F848EA0408CCF8208004684FEA420C6D
:100FF00006FA0CF7BC430F7907F0030707FA0CF762
:10100000274307604C6814F4403F70D03C4C27687D
:1010100047F480472760246822F0030704F48044E3
:101020000094384C07EB040CDCF8084897074FEAAB
:10103000177809FA08F7BC43334FB84202D10027AA
:1010400024E054E0314FB84201D101271EE0304F77
:10105000B84201D1022719E02E4FB84201D103272F
:1010600014E02D4FB84201D104270FE02B4FB842B6
:1010700001D105270AE02A4FB84201D1062705E031
:10108000284FB84201D1072700E0082707FA08F7E0
:101090002743CCF80878DAF800405746D1F804C066
:1010A0009C435FEACC2C00D51C433C60DBF800403D
:1010B0005F46D1F804C09C435FEA8C2C00D51C43EA
:1010C0003C60DEF800407746D1F804C09C435FEAFC
:1010D0008C3C00D51C433C60084F083F3C68D1F86D
:1010E00004C09C435FEACC3C00D51C433C60521CCE
:1010F000102AFFF42FAFBDE8F88F0000083C014034
:101100004438024000300140000002400004024028
:1011100000080240000C024000100240001402408F
:1011200000180240001C02400069084000D0012065
:101130007047426921EA02030A4043EA02418161A1
:1011400070470AB1816170470904FBE70148806874
:10115000704700001C00002002488168027811449A
:10116000816070471C0000200B4810B5016841F4F5
:1011700000710160016841F480610160016841F41F
:1011800080710160032000F09FF80F2000F006F846
:1011900000F050F8002010BD003C024030B505467C
:1011A0001F4887B00024016841F0200101600068F9
:1011B00006A900F02000009001A800F031F9049881
:1011C000A8B100F04DF940001649174AB0FBF1F103
:1011D0001648491E026040F2E732C0E90324C0E924
:1011E0000114846100F0B6FB040003D015E000F0A8
:1011F00037F9E9E70D4800F079FC04000DD13720FC
:1012000000F034F8102D07D200222946372000F0D4
:101210003BF80748056000E0012407B0204630BDD8
:101220004038024040420F0000140040F00400200B
:10123000200000200C4882B0016841F48041016028
:10124000006800F4804000900748001F016841F0EA
:10125000805101600068002200F0805000900F2152
:10126000901E02B000F010B844380240002809DB9C
:1012700000F01F02012191404009800000F1E020B0
:10128000C0F8001170470000F0B40E4B1B680C460C
:10129000C3F30223C3F10705042D00D90425191D4A
:1012A000072901D2002300E0DB1E012606FA05F122
:1012B000491E214099409E40761E16403143F0BCA5
:1012C00003F097B80CED00E0064900F0070208684B
:1012D0004FF6FF03184040EA0220034A104308601B
:1012E000704700000CED00E00000FA052DE9F04722
:1012F0000E46050065D0DFF81481D8F80000F7B27B
:1013000000F00700B04207D288F80070D8F800005B
:1013100000F00700B04254D128683D4C810712D537
:10132000400703D5206840F4E0502060287800078B
:1013300003D5206840F4604020602068A96820F050
:10134000F000084320602878C0072DD03049686835
:101350000839012812D0022813D0032811D00968B7
:10136000890700292DDA216821F00301014321605A
:10137000FFF7ECFE814641F2883A0EE009688903E6
:10138000EFE709688901ECE7FFF7E0FEA0EB090150
:10139000514502D90320BDE8F0872068696800F054
:1013A0000C00B0EB810FEFD1D8F80010404601F0EF
:1013B0000701B14207D90770006800F00700B0428A
:1013C00001D00120E7E72878400705D52068E968C3
:1013D00020F4E050084320602878000706D52068F4
:1013E000296920F4604040EAC100206000F058F80C
:1013F0002168084AC1F30311515CC84006490860DE
:1014000006480068FFF7CAFE0020C4E7003C02401F
:1014100008380240B0780008280000202000002092
:101420000F2202600C4A136803F003034360136841
:1014300003F0F0038360136803F4E053C3601268A1
:101440004FF4E05303EAD20202610448006800F05E
:10145000070008607047000008380240003C024066
:101460000448054900680968044AC1F38221515CB7
:10147000C84070472800002008380240C0780008A3
:101480000448054900680968044AC1F34231515CC7
:10149000C84070472800002008380240C078000883
:1014A000154810B5006810F00C02144813D0411014
:1014B000042A0FD0082A0ED10F4C241F226823685B
:1014C00002F03F025B0207D52068C0F38810A0FB42
:1014D000010106E0084610BD2168C1F38811A1FB97
:1014E00000010023FEF7CEFE2168C1F30141491C33
:1014F0004900B0FBF1F010BD083802400024F400B0
:101500002DE9F84F04006ED02078DFF84C93C00727
:10151000A9F104054AD009F104000168C1F3810171
:10152000012908D00068C0F3810002280AD1D9F847
:101530000000400206D52868800337D5606800287F
:10154000E1D033E06068B0F5803F10D0B0F5A02F57
:10155000286810D020F480302860286820F480208B
:1015600028606068A8B1FFF7F1FD06460DE0286825
:1015700040F48030F4E740F480202860F7E700BFB3
:10158000FFF7E4FD801B642873D828688003F7D533
:101590000CE0FFF7DBFD064605E000BFFFF7D6FDD8
:1015A000801B6428F0D828688003F7D42078DFF8FF
:1015B000AC8280074FF0000A3ED5A748001D0168A5
:1015C00011F00C0F08D00068C0F3810002280BD185
:1015D000D9F80000400207D42868800716D5E068D3
:1015E000012800D112E033E1E068B8B10120C8F869
:1015F0000000FFF7ABFD064605E000BFFFF7A6FDC4
:10160000801B0228C0D828688007F7D52868216980
:1016100020F0F80040EAC10028600DE0C8F800A002
:10162000FFF794FD064604E0FFF790FD801B0228BB
:101630001FD828688007F7D42078000722D5864F66
:1016400087486169703771B101210160FFF77EFD44
:10165000064604E0FFF77AFD801B022809D83868A7
:101660008007F7D50EE0C0F800A0FFF76FFD064633
:1016700005E082E0FFF76AFD801B02287DD838680C
:101680008007F7D42078400768D5DFF8CCB1002771
:101690000BF13C0BDBF80000C0000BD4DBF80010B2
:1016A00041F08051CBF80010DBF80000012700F07A
:1016B000805000906B4E3068C00510D4306840F404
:1016C00080703060FFF742FD009005E0FFF73EFDBF
:1016D0000099401A022850D83068C005F6D55E4EF1
:1016E000A0686C3601280FD00528306810D020F093
:1016F00001003060306820F004003060A068B8B1AC
:10170000FFF724FD00900FE0306840F00100F4E79F
:1017100040F004003060F7E7FFF718FD0099411A28
:1017200041F28830814266D830688007F4D50EE0F7
:10173000FFF70CFD009007E0FFF708FD0099411A44
:1017400041F28830814256D830688007F4D42FB1F6
:10175000DBF8001021F08051CBF80010A069C8B36D
:101760003D49091D0968C1F3810102294AD00228B7
:10177000504607D0C8F8600000E03CE0FFF7E6FC08
:1017800004463BE04746C8F86000FFF7DFFC06462A
:1017900005E000BFFFF7DAFC801B02282BD8286881
:1017A0008001F7D4D4E907010843A16A2E4A490809
:1017B00002EB0141626A41EA8211084394F82C105D
:1017C00040EA0161C9F8001001203866FFF7BEFC4D
:1017D000044606E03EE000BFFFF7B8FC001B02280D
:1017E00009D828688001F7D534E000BFFFF7AEFCC8
:1017F000001B022802D90320BDE8F88F2868800169
:10180000F4D427E00128F7D0D9F80000E26900F409
:10181000800191421CD1226A00F03F01914217D110
:1018200047F6C071626A0140B1EB821F10D1A26A13
:101830004FF0FF3300F4403103EB5202B1EB024FA3
:1018400006D194F82C1000F07060B0EB016F01D05D
:101850000120D1E70020CFE70438024000004742D2
:10186000800E4742007000400000FFFF7047704745
:1018700010B590F83C20012A22D0012280F83C20AB
:10188000CA688C6822F4407222434C6822F4806259
:1018900022430C6822F4006222430C6922F4805235
:1018A00022434C6922F400522243C969002322F4E6
:1018B00080420A4301684A6480F83C30002010BD31
:1018C000022010BD70B590F83C20012A32D00124CE
:1018D00080F83C40022280F83D2003685A689D68E9
:1018E00022F070060A6832435A60134B02689A422B
:1018F00014D0B2F1804F11D0104B9A420ED0104B41
:101900009A420BD00F4B9A4208D00F4B9A4205D007
:101910000E4B9A4202D00E4B9A4204D1496825F0F0
:1019200080031943916080F83D40002180F83C100D
:10193000084670BD022070BD000001400004004058
:1019400000080040000C004000040140004001403D
:101950000018004010B5040003D094F83D0010B109
:1019600007E0012010BD002084F83C00204600F074
:101970001FF8022084F83D00211D206802F05EF966
:10198000012084F8460084F83E0084F83F0084F883
:10199000400084F8410084F8420084F8430084F851
:1019A000440084F8450084F83D00002010BD00008C
:1019B00070B586B0044614216846FEF7ADFC284A8F
:1019C000216800252748914231D1016841F0040186
:1019D0000160006800F0040005902248103801689A
:1019E00041F0080101600068022400F00800059041
:1019F0004FF440508DE831001B4ECDE90354694649
:101A00003046FFF799FA6003CDE90004CDE90245BD
:101A1000694630460494FFF78FFA002205211E2004
:101A2000FFF732FC1E20FFF721FC06B070BD0F4A05
:101A3000914207D1016841F010010160006800F097
:101A400010000BE00A488142EFD10648001D0168F2
:101A500041F002010160006800F002000590E4E737
:101A60000008004040380240000C024000100040D6
:101A70000004014090F83D10012901D00120704779
:101A8000022180F83D1000681149884214D0B0F15D
:101A9000804F11D00F4988420ED00F4988420BD099
:101AA0000E49884208D00E49884205D00D49884227
:101AB00002D00D49884204D1816801F0070106294E
:101AC00003D0016841F0010101600020704700006F
:101AD000000001400004004000080040000C0040ED
:101AE00000040140004001400018004090F83D1003
:101AF000012901D001207047022180F83D100168C2
:101B0000CA6842F00102CA6000681149884214D0D4
:101B1000B0F1804F11D00F4988420ED00E49884253
:101B20000BD00E49884208D00D49884205D00D4996
:101B3000884202D00C49884204D1816801F0070133
:101B4000062903D0016841F00101016000207047BF
:101B5000000001400004004000080040000C00406C
:101B600000040140004001400018004070B50446E8
:101B700090F83C000025012817D0012684F83C602D
:101B8000022084F83D002068826822F0770222F467
:101B90007F4282600868502838D00DDC20284FD062
:101BA00005DC90B3102811D14AE0022070BD302826
:101BB00046D040280AD13BE060282FD070280DD0B5
:101BC000B0F5805F03D0B0F5005F12D0012584F836
:101BD0003D60002084F83C00284670BDCB68D1E908
:101BE0000121206802F0A3F82068816841F07701A4
:101BF00009E0CB68D1E90121206802F098F820685B
:101C0000816841F480418160E1E719E0CA68496870
:101C1000206802F061F95021206806E0CA6849682E
:101C2000206802F0ABF96021206802F08AF8CEE764
:101C3000CA684968206802F04FF940212068F4E73B
:101C4000226801461046F0E710B5044605F064FC32
:101C5000022807D10448844204D12046BDE8104040
:101C600001F030BF10BD0000C80200202DE9F04196
:101C7000054690F83C0000260C46012810D00120B3
:101C800085F83C0072B1042A1CD0082A2CD00C2AFA
:101C900050D00126002085F83C003046BDE8F08198
:101CA0000220FBE7D4E90012E368286802F026F975
:101CB0002868816921F00C01816128688169A26826
:101CC00011430FE0D4E90012E368286802F068F9D4
:101CD0002868816921F44061816128688169A2686E
:101CE00041EA02218161D5E72868D4E9002C277BED
:101CF000036A016A21F480710162C16923F42063DF
:101D000021F0030141EA0C0121F0F00C39074FF4F6
:101D100020674CEA116107EA02221A43C16102629C
:101D20002868C16921F00C01C1612868C169A268F5
:101D300011432BE02868D4E90021E768036AD0F852
:101D400020C02CF4805CC0F820C0D0F81CC023F464
:101D500020432CF4407C4CEA012121F4704C4FF6D6
:101D6000FF7101EA07314FF4204741EA0C0107EA0D
:101D700002321A43C16102622868C16921F44061DC
:101D8000C1612868C169A26841EA0221C16181E795
:101D900010B5040003D094F83D0010B107E0012015
:101DA00010BD002084F83C00204600F01EF8022000
:101DB00084F83D00211D206801F040FF012084F8D7
:101DC000460084F83E0084F83F0084F8400084F820
:101DD000410084F8420084F8430084F8440084F809
:101DE000450084F83D00002010BD704730B5044622
:101DF000002551B104290DD0082910D094F84100D4
:101E000094F84520012811D10EE094F83E0094F892
:101E10004220F7E794F83F0094F84320F2E794F863
:101E2000400094F84420EDE7012A01D0012030BDA4
:101E3000022059B1042912D0082919D084F8410090
:101E400084F845000C2944D0012540E084F83E0088
:101E500084F842002068C26842F0020210E084F870
:101E60003F0084F843002068C26842F0040207E0A3
:101E700084F8400084F844002068C26842F00802F8
:101E8000C2600122206801F045FF144920688842A1
:101E900014D0B0F1804F11D0114988420ED01149B1
:101EA00088420BD01049884208D01049884205D09A
:101EB0000F49884202D00F49884204D1816801F05D
:101EC0000701062903D0016841F00101016028469D
:101ED00030BD2068C26842F01002D1E70000014026
:101EE0000004004000080040000C004000040140D5
:101EF00000400140001800402DE9F0410446006810
:101F0000C66805694FF00007A90713D5B10711D5B9
:101F1000F91E016101202077206880698007204632
:101F200002D0FFF791FE04E000F0A8F8204600F090
:101F30003AF92777680716D5700714D521686FF02E
:101F400004000861022020772068806910F4407F37
:101F5000204602D0FFF778FE04E000F08FF820461C
:101F600000F021F92777280715D5300713D5216808
:101F70006FF008000861042020772068C06980079E
:101F8000204602D0FFF760FE04E000F077F820461C
:101F900000F009F92777E80616D5F00614D5216870
:101FA0006FF010000861082020772068C06910F4E5
:101FB000407F204602D0FFF747FE04E000F05EF8C5
:101FC000204600F0F0F82777E80708D0F00706D0A1
:101FD00021686FF001000861204600F049F92806E9
:101FE00008D5300606D521686FF0800008612046CC
:101FF000FFF73CFC680608D5700606D521686FF02F
:1020000040000861204600F052F9A8060AD5B00643
:1020100008D521686FF0200008612046BDE8F04136
:10202000FFF725BCBDE8F08110B586B00446142149
:102030006846FEF771F90E492068884215D10D48AF
:102040000021026842F004020260006800F004000F
:102050000590C02000900220CDE901010320CDE9C8
:10206000031069460448FEF767FF06B010BD000084
:10207000000401403038024000080240704770B54B
:10208000044690F83C0000260D4601280FD00120A0
:1020900084F83C006AB1042A1DD0082A2FD00C2AEB
:1020A0003FD00126002084F83C00304670BD02205D
:1020B00070BD206801F04EFE2068816941F0080182
:1020C00081612068816921F0040181612068816952
:1020D0002A69114311E0206801F06CFE20688169D3
:1020E00041F4006181612068816921F4806181612E
:1020F000206881692A6941EA02218161D2E720686A
:1021000001F08EFE2068C16941F00801C1612068BC
:10211000C16921F00401C1612068C1692A691143C4
:1021200011E0206801F0B0FE2068C16941F400614F
:10213000C1612068C16921F48061C1612068C16901
:102140002A6941EA0221C161ACE710B5040003D05D
:1021500094F83D0010B107E0012010BD002084F884
:102160003C00204600F01EF8022084F83D00211DAE
:10217000206801F063FD012084F8460084F83E00E9
:1021800084F83F0084F8400084F8410084F842005D
:1021900084F8430084F8440084F8450084F83D0046
:1021A000002010BD7047704710B50446022249B1A7
:1021B00004290ED0082913D094F84100012816D024
:1021C000012010BD94F83E000128F9D184F83E208A
:1021D0000FE094F83F000128F2D184F83F2008E096
:1021E00094F840000128EBD184F8402001E084F805
:1021F00041200122206801F08DFD16492068164A11
:10220000884201D0904203D1436C43F400434364BD
:102210002068884213D0B0F1804F10D00F49884217
:102220000DD00F4988420AD00E49884207D090420B
:1022300005D00D49884202D00C49884204D18168FA
:1022400001F00701062903D0016841F00101016096
:10225000002010BD000001400004014000040040C7
:1022600000080040000C0040004001400018004001
:1022700000680349884201D1FEF76EBF7047000035
:10228000001400400246002041B1042909D0082969
:102290000AD00C2901D11068006C70471068406B9F
:1022A00070471068806B70471068C06B704770474C
:1022B00070477047F8B5016804460868CA684B69FA
:1022C00010F00F0F4FF0000559D003F0010602F493
:1022D0009077374365D0C10705D0D10503D5616C30
:1022E00041F001016164410705D5D90703D0616C54
:1022F00041F002016164810705D5D90703D0616C03
:1023000041F004016164010707D502F02001314367
:1023100003D0616C41F008016164616C00293AD01E
:10232000800604D5900602D5204601F0E3FE206821
:102330004069616CC0F38010090700D460B3204687
:1023400001F0A3FE20684069400621D520681430C2
:1023500050E8001F21F0400140E80012002AF5D1AA
:10236000E06BA8B16E490165E06BFEF738FC002810
:1023700011D0E06B016D01B0BDE8F0400847830665
:102380000FD593060DD52046BDE8F84001F0B2BE4A
:102390002046FFF78EFFF8BD2046FFF78AFF6564F1
:1023A000F8BD266B2023012E7DD1C6067BD5D6062F
:1023B00079D508684868009048694FF002064006E1
:1023C00041D5E16B086840680004000CE8D0A28D9C
:1023D0008242E5D9E085C869B0F5807F2DD02068BC
:1023E0000C3050E8001F21F4807140E80012002AF0
:1023F000F5D12068143050E8001F21F0010140E8B9
:102400000012002AF5D12068143050E8001F21F096
:10241000400140E80012002AF5D184F842302563DB
:1024200020680C3050E8001F21F0100140E8001235
:10243000002AF5D1E06BFEF789FB6663A08DE18D84
:10244000401A81B22AE0A08DE18D401A81B2E08D60
:102450000028A5D00029A3D022680C3252E8000F32
:1024600020F4907042E80007002FF5D12068143066
:1024700050E8002F22F0010240E80027002FF5D19C
:1024800084F84230256320680C3050E8002F22F099
:10249000100240E80023002BF5D166632046FFF7C9
:1024A00007FFF8BDFFE705062BD5150629D594F8DB
:1024B00041002128F5D1A068B0F5805F01D12069E5
:1024C000B0B1206A411C2162216800784860E08C2C
:1024D000401E0004000CE084E3D12068C16821F0B4
:1024E0008001C1602068C16841F04001C160D8E747
:1024F000206A0088C0F308004860206A801C2062BF
:10250000E5E74006CDD55006CBD5CA68204622F077
:102510004002CA6084F8413000F094F9C1E700003D
:10252000E53F000870B5040004D094F84100002590
:1025300010B106E0012070BD84F84050204600F044
:1025400023F8242084F841002068C16821F4005158
:10255000C160204601F030FE2068016921F49041FD
:1025600001612068416921F02A0141612068C16848
:1025700041F40051C1606564202084F8410084F872
:1025800042006563002070BD2DE9F04387B0064628
:1025900014216846FDF7C0FE414D02223168002437
:1025A0004048032397064FF040084FF48069A94242
:1025B00036D13C4910310D6845F400250D6009689D
:1025C00001F400210591016841F0040101600068F7
:1025D000694600F00400059098028DE81500082077
:1025E000CDE903303048FEF7A7FC314D2F48C5E94F
:1025F0000284C5E90494AC61EC612C626C62C5E9AB
:1026000000072846FEF7CEFB08B1FEF7D3F8B56306
:10261000002205213420AE63FEF736FE34203AE076
:10262000244DA94239D11F4914310D6845F01005D8
:102630000D60096801F010010591016841F0010188
:1026400001600068694600F0010005904FF40070D9
:102650008DE815000720CDE903301748FEF76CFC24
:10266000134D16486035C5E90284C5E90494AC6190
:10267000EC612C626C62C5E900072846FEF792FB0C
:1026800008B1FEF797F8B563002205212520AE6357
:10269000FEF7FAFD2520FEF7E9FD07B0BDE8F0835F
:1026A000004C004030380240000802407060024098
:1026B000300400200010014000000240B8640240D5
:1026C00090F84230202B01D00220704721B11AB17E
:1026D0000023036301F0F6BD0120704708B5002117
:1026E00000910E49884217D10D48006820B100239F
:1026F0006A460C4904F082FD01220A490748FFF7A7
:10270000DFFF0098002807D007494FF0805008608D
:10271000BFF34F8FBFF36F8F08BD0000A0030020F1
:102720000C0000200000002004ED00E02DE9F8433B
:10273000044690F84100984616460D46202802D0DF
:102740000220BDE8F88385B17EB1002060642120BD
:1027500084F84100FEF7FAFCA6848146E684A0686E
:102760002027B0F5805F02D003E00120E9E720696F
:1027700010B12E4600250EE000260CE080212046F8
:1027800001F0BBFDA8B9C6B116F8010B216848607D
:10279000E08C401EE084E08C4B464FF00002CDF808
:1027A00000800028EAD14FF04001204601F0A5FD4D
:1027B00040B184F841700320C3E735F8020BC0F341
:1027C0000800E3E784F841700020BAE770B50446DA
:1027D00090F84100202801D0022070BD49B342B3D7
:1027E0002162A284E28400206064212384F84130C5
:1027F000A56B114BEB63A56B104B2B64A56B104BBA
:10280000EB64A36B1865256813462A1DA06BFEF7C1
:1028100033FB21686FF0400008602068143050E8F6
:10282000001F41F0800140E80012002AF5D100208D
:1028300070BD012070BD00003F40000881400008CD
:10284000F53F00087047704710B586B004466846EB
:1028500000F02AF89FED110A9DF81100C8B1029806
:10286000B8B100EE100ADFED0E0A9DF91000B8EEC7
:10287000400A002880EE801A9FED0A0A21EE000A25
:1028800001DAB1EE400A0CB184ED000A012006B075
:1028900010BD0CB184ED000A0020F8E70000000034
:1028A00000247449D632973DF0B587B0044602F053
:1028B000AFFA054672B6274B186800905868019029
:1028C00098680290D8680390187C8DF81000587CA6
:1028D0008DF81100987C8DF81200D87C8DF81300CB
:1028E000187D8DF8140062B6012602990020C1B14E
:1028F0000199B1B1029A184F921840EB0001D71B11
:1029000071F1000701D2144A0021DFF850C00027FE
:10291000BCEB020C8F4100D2104A0199691A8A421D
:1029200004D28DF811008DF8126003E08DF811606B
:102930008DF8120072B69DF8110058749DF81200BF
:10294000987462B6182269462046FDF7CCFC07B0A1
:10295000F0BD0000C8DF002020A1070000093D00F5
:1029600072B609494FF48040088008480021016090
:1029700041608160C1600174417401228274C1743C
:10298000017562B67047000014020020C8DF002005
:1029900010B502F03DFA0B494A685AB1821A40F26A
:1029A000DC539A4203D2C868401CC86010BD8A60DC
:1029B00001224A744860002088740868401C08603E
:1029C00010BD0000C8DF002072B6002802DD4FF005
:1029D000010005E002DA4FF0FF3001E04FF00000A7
:1029E0000149087462B67047C8DF0020FEE70000A6
:1029F0007FB500211B48009101910291184A039173
:102A0000026001244FF400320461C0E90121047620
:102A100080F82010144AC0E90A210225C561C1606E
:102A200080F830404461FDF770FF08B1FDF7C2FE49
:102A30000C20CDE900040720029069460948FDF703
:102A4000BBFE08B1FDF7B6FE0D20CDE900056946D5
:102A50000448FDF7B1FE002801D0FDF7ABFE7FBDB5
:102A600000200140200200200100000F154808B599
:102A7000016841F480010160016801F48001009166
:102A8000016841F4001101600068002200F40010A8
:102A9000009005210F20FEF7F7FB0F20FEF7E6FB65
:102AA000002205213820FEF7EFFB3820FEF7DEFB81
:102AB000002205214620FEF7E7FBBDE8084046203E
:102AC000FEF7D4BB303802402DE9FC410022012141
:102AD000322004F04BFA234C234A00216060234843
:102AE00002F05EFC206104F108012820CDE900011C
:102AF0004FF4807500232A461DA1204804F0B4FC41
:102B0000012801D0FDF756FE00241720CDE900046E
:102B10004FF400762346324619A11C4804F0A4FC69
:102B2000012801D0FDF746FE1827CDE900740023E7
:102B30002A4617A11A4804F097FC012801D0FDF796
:102B400039FECDE900740023324616A1194804F07D
:102B50008BFC012803D0BDE8FC41FDF72BBEBDE88E
:102B6000FC8100000800002084780008493B000830
:102B7000536572766F5461736B000000693700080B
:102B800073686F775461736B000000003D64000848
:102B900053657269616C436F6E5461736B00000022
:102BA000253400087472616E736D69745F746173AB
:102BB0006B000000C53200082DE9F04786B01421F3
:102BC0006846FDF7A9FB3F480024016841F0100169
:102BD0000160016801F010010591016841F00401F4
:102BE0000160016801F004010591016841F0800174
:102BF0000160016801F080010591016841F0010167
:102C00000160016801F001010591016841F00801CE
:102C100001600068DFF8B0A000F008000590002215
:102C200010215046FEF78DFADFF8A0804FF4604780
:102C3000002239464046FEF784FADFF894900022DD
:102C400010214846FEF77DFA102601250096CDE9B1
:102C50000154694650460394FEF76EF90097CDE99A
:102C60000154694640460394FEF766F928038DE84F
:102C7000310069464046FEF75FF9C0208DE831001B
:102C800069464846FEF758F90096CDE90154694671
:102C900048460394FEF750F94FF4C04000904FF4BB
:102CA0000410CDE9010569465046FEF745F90022BA
:102CB00005212820FEF7E8FA2820FEF7D7FA06B00B
:102CC000BDE8F087303802400010024000080240A2
:102CD000000C024010B58AB000242A4804940594E0
:102CE000069407940894099400940194029424494A
:102CF000039401605321C0E9011442F20F71C0E94D
:102D000003148461FEF726FE08B1FDF753FD4FF46E
:102D10008050049004A91B48FEF728FF08B1FDF776
:102D200049FD1848FFF734F808B1FDF743FD089452
:102D300008A914480994FEF7C5FD08B1FDF73AFD4E
:102D40000120CDE900400294002269460D48039419
:102D5000FEF78CFF08B1FDF72DFD042269460948F6
:102D6000FEF784FF08B1FDF725FD082269460548F6
:102D7000FEF77CFF002801D0FDF71CFD0AB010BD56
:102D800000080040C80200201CB500240F48009431
:102D90000D490194016040F24731C0E901144FF63A
:102DA000FF718461C160FEF7D5FD08B1FDF702FD3A
:102DB0000094694605480194FEF784FD002801D07F
:102DC000FDF7F8FC1CBD00000010004010030020BF
:102DD00010B596B000240F9410941194129413948B
:102DE0001C2168461494FDF797FA202107A8FDF7E7
:102DF00093FA2C482A490160A721C0E9011440F642
:102E00004621C0E9031444618461FEF7A3FD08B1C3
:102E1000FDF7D0FC4FF480500F900FA92148FEF72A
:102E2000A5FE08B1FDF7C6FC1E48FFF78EF908B1F4
:102E3000FDF7C0FC139413A91A481494FEF742FD41
:102E400008B1FDF7B7FC6020CDE9000402940394BB
:102E5000049405940022694612480694FFF70FF97E
:102E600008B1FDF7A7FC042269460E48FFF707F9F1
:102E700008B1FDF79FFC0794089409944FF40050A3
:102E80000A94CDE90B4007A906480E94FEF7F0FC22
:102E900008B1FDF78FFC0348FFF7C6F816B010BD68
:102EA00000040140580300200C4810B50A49016095
:102EB0004FF4E1314160002181600C22C160C0E922
:102EC00004128161C161FFF72DFB002803D0BDE82A
:102ED0001040FDF76FBC10BD004C0040A003002067
:102EE0000C4810B50A4901604FF4E13141600021FE
:102EF00081600822C160C0E904128161C161FFF7ED
:102F000011FB002803D0BDE81040FDF753BC10BDF5
:102F100000100140E8030020FEE7FEE730B4002186
:102F2000084B0A465FF0000003EBC004401CC0B22F
:102F300062548028F8D3491CC9B20829F2D330BCA6
:102F400000F09CB820DA002010B57F2816D83F2961
:102F500014D80723A3EBD10301F00701C1F1070443
:102F60000121A140064CDBB204EBC000002AC25C88
:102F7000C9B201D00A4300E08A43C25410BD000028
:102F800020DA002070B53C4D4FF400540022214659
:102F90002846FEF7D6F86420FDF7A6FF0122214659
:102FA0002846FEF7CEF80021AE2000F053F90021AC
:102FB000D52000F04FF90021502000F04BF90021FE
:102FC000A82000F047F900213F2000F043F900213C
:102FD000D32000F03FF90021084600F03BF9002122
:102FE000402000F037F900218D2000F033F9002156
:102FF000142000F02FF90021202000F02BF90021EF
:10300000022000F027F90021A12000F023F900217F
:10301000C02000F01FF90021DA2000F01BF9002188
:10302000122000F017F90021812000F013F900218F
:10303000EF2000F00FF90021D92000F00BF900215A
:10304000F12000F007F90021DB2000F003F9002156
:10305000302000F0FFF80021A42000F0FBF8002150
:10306000A62000F0F7F80021AF2000F0F3F8BDE84B
:103070007040FFF753BF00000008024070B5114ECA
:10308000002400BF04F1B000C0B2002100F0E2F85B
:103090000021084600F0DEF80021102000F0DAF8E8
:1030A0005FF0000506EBC5000121005D00F0D2F8DD
:1030B0006D1CEDB2802DF5D3641CE4B2082CE1D375
:1030C00070BD000020DA00202DE9FF5F203A1F4686
:1030D0000C46894602F0FF0A0025DDF838B032E0E0
:1030E0000C2F09D01A4901EB0A104FF00008465D79
:1030F000300607D55A4609E016490AEB4A0001EBAB
:103100008000F2E7BBF1000F12D0002221460098A8
:10311000FFF71AFF7006641C060EE4B2A4EB090068
:10312000B84207D100984C46401CC0B2009008E05D
:103130000122EBE708F1010000F0FF08B8F1080FE9
:10314000D6D36D1CEDB2BD42CAD3BDE8FF9F0000CF
:103150003C7D0008C87800082DE9FF4F81B00027AA
:10316000DDF838901D46934682463C464FF00108F4
:103170004FEA59062BE0281B401E0A22C1B201204B
:1031800000E05043491EC9B2FBD2BBFBF0F00A215C
:10319000B0FBF1F201FB120027B9691E8C4201DA83
:1031A00048B101273030C2B206FB04A0C0B24B4682
:1031B000CDF8008006E006FB04A0C0B24B462022FA
:1031C000CDF800800299FFF77FFF641CE4B2AC42A7
:1031D000D1D305B0BDE8F08F2DE9F8431E46089F16
:1031E00014008846054604D5504204B207A228467A
:1031F00000E007A200F00EF80A35E8B23346224696
:1032000041460097FFF7A8FFBDE8F8832D000000B6
:103210002B000000F8B516460D460446012714E0C1
:103220007A2C02D900241035EDB23A2D03D90024AE
:103230002546FFF773FE009732780C232946204677
:10324000FFF742FF0834E4B2761C30780028E7D15B
:10325000F8BD00002DE9F047DFF86090054609B1A0
:10326000012200E0002210214846FDF76AFF144FBA
:1032700000244FF480484FF400460022314638467F
:10328000FDF75FFF280601D5012200E0002241463C
:103290003846FDF756FF012231463846FDF751FF0B
:1032A0006806641C050EE4B2082CE6D34846BDE867
:1032B000F04701221021FDF744BF0000001002403A
:1032C000000802402DED068B8AB004F033F99FED23
:1032D0004E9ADFED4E9AB2EE06AA9FED4D8A012777
:1032E0004C4C4FF07B0800256E46DFED4B8A099071
:1032F0008DED078A8DED088A8DED068A002001F09C
:103300003BF800EE100A06AA08A9F8EE400A07A842
:1033100080EE890A20EE290A20EE0A0A84ED000ACE
:1033200000F030F928B98DED078A8DED088A8DED12
:10333000068A8DF800808DF801709DED070A20EE59
:10334000280ABDEEC00A10EE100A00128DF8020025
:1033500010EE100A8DF803009DED080A20EE280AF1
:10336000BDEEC00A10EE100A00128DF8040010EE37
:10337000100A8DF805009DED060A20EE280ABDEE24
:10338000C00A10EE100A00128DF8060010EE100AA6
:103390008DF8070008203554401CC0B21328FAD914
:1033A00094ED000A162120EE280ABDEEC00A10EEA8
:1033B000100A00128DF8140010EE100A8DF8150096
:1033C0006846FDF75CF98DF816007D208DF8170032
:1033D0001248182269460068FFF7F8F90D4A0C32C6
:1033E000111F02F04BFD207948B9182269460C489C
:1033F000FFF7ECF9074A1432111F02F03FFD3221AA
:1034000009A803F0B3FB73E700F07F453333534063
:103410000000000060DF002000007A44040100206A
:10342000E80300202DED048B86B04FF000088DF8E6
:103430000080142101A8FCF76FFFDFF838914E4C93
:1034400000254FF0FF3A52466946D9F8000003F0D4
:1034500035FF0128F7D19DF8000002F0C9FD9DF865
:10346000000002F0F9FD9DF800007B2801D0002D3E
:10347000E9D001A948556D1CEDB20B2DE3D19DF8A3
:103480000E0000257D28DED1092101A8FDF7F7F8FF
:103490009DF80D108842D6D19DF805000428D2D0A1
:1034A0000028D0D1BDF8070040BA00B200EE100AE3
:1034B000BDF80900F8EEC00A9FED300A40BA00B22C
:1034C000C0EE808A00EE900ABDF80B00F8EEE00A2C
:1034D00040BA00B280EE809A00EE900A9DF8060095
:1034E000F5EEC08AF8EEE00AC70980EE808AF1EEB8
:1034F00010FA0FD1B0EE490AB5EEC00AF1EE10FA9B
:1035000008D1B0EE480AB5EEC00AF1EE10FA01D1CA
:10351000012600E0002600F09FF82EB1E1780A298C
:1035200004D2491CE17001E084F8038080B1A078E6
:1035300050B99FED130A0120B0EE401AF0EE400A98
:1035400000F028F90120A07056EA070090D001E0B1
:1035500084F80280E0780A2802D30EB9002F87D0C1
:103560003846B0EE481AF0EE490AB0EE680A00F0AC
:1035700011F968E70C000020F000002000007A44F8
:103580000000000070B506462DED028B82B09FED65
:10359000108A14460D468DED008A6846FFF754F9EF
:1035A000002811D00B489DED000A408803F002F876
:1035B0001EB1DDED000AC6ED000A0DB185ED008AF1
:1035C0000CB184ED000A012002B0BDEC028B70BD8D
:1035D00000000000E801002000487047E8010020DA
:1035E00010B5184801210024017144718471DC3840
:1035F0000470447000F1800184708C65C4700471A3
:103600004471847102F0C0FB0E4840F2DC51083076
:103610009FED0D0A01804180446080ED020A80ED3B
:10362000030A80ED040A0475447500F045F901F0C1
:1036300049FB01F01BFA01F0A3FBBDE8104001F0CB
:103640001DBA0000E8010020000000000148407899
:10365000704700000C01002001480078704700000E
:103660000C01002010B5044602F048FF0448006831
:10367000C16AA14201D2C16A8CB2446310BD00008C
:103680005803002010B5044602F038FF04480068D3
:10369000C16AA14201D2C16A8CB2846310BD00002C
:1036A0005803002070B502F0F5FB02F0C3FF01F0F3
:1036B0002FFE2C4C0546207800B915B90020FFF7E5
:1036C00083F9284EDC36B07920B14FF47A7001F0DE
:1036D000CDF940E02078C0B1E07820B10121208907
:1036E00002F0BAFB01E001F0EDFA0546207920B1C5
:1036F0000021608902F0B0FB01E001F041FB0446CB
:10370000284601F0A5F9204627E08DB1154CE43498
:10371000607D20B1002001F0A9F900201DE0208883
:1037200001F012FA01F0D4FB01F092F9608809E08F
:10373000A07960B1308801F007FA01F0C9FB01F00F
:1037400087F9708801F036FA01F0DAFB05E001F044
:10375000B9FA01F07DF901F013FBBDE8704001F00A
:103760008DB900000C01002008B503F0E3FE084C01
:1037700000250090206920B16069A169256102F0EF
:10378000A5FCFFF78FFF1421684603F0EFF9F1E77E
:103790000C01002070B505462DED088BF0EE41AA16
:1037A000F0EE409AB0EE6A0A01F0D8F93F48F0EE28
:1037B000408A0021026B02B1026B426B02B1426B84
:1037C000406A08B13DB114E0BDEC088B0020BDE8B3
:1037D0007040FFF7F9B8F5EEC09AF1EE10FA01DD8E
:1037E000012106E0F5EEC09AF1EE10FA01D24FF099
:1037F000FF310846FFF7E8F8B0EE690A02F0B8FBBF
:10380000B0EE40AAB0EECABA01F0C8FA00EE100A53
:103810009FED278AB8EE400A80EE089A01F03EFA42
:1038200000EE100AF8EE400A80EE880AB4EEC09A64
:10383000F1EE10FA01DDB0EE490A1C4C9FED1D8A35
:10384000B4EEC0BAE434F1EE10FA0CD201F03AFA58
:10385000208001F095FA608084ED028A84ED038A6D
:1038600084ED048A11E0B0EE690A01F04FFC20807B
:10387000F0EE6A0AB0EE690A01F0D6FC608084EDD1
:1038800002AA84ED038AC4ED048A1DB184ED028A84
:1038900084ED048AFDF75AFC60600120207505B1B3
:1038A00000E000206075BDEC088B70BD0C010020AD
:1038B00000007A44000000001D4910B5002040F2CD
:1038C000DC5208608A808871886008731031194C56
:1038D00008608A80887188600873103108608A8067
:1038E0008871886008732068016A21F00A0101620A
:1038F00002F00CFA21680A6A104308622068016A23
:1039000021F0A001016202F001FA21680A6A42EA8C
:10391000001008622068016A21F42061016202F04F
:10392000F5F921680A6A42EA0020086210BD000029
:1039300098DF0020C80200200148808870470000FE
:10394000B8DF00200148808870470000A8DF002011
:10395000014880887047000098DF00202DE9F05F63
:103960000C460546174611462046FEF78BFC0646D8
:103970002068D0F82C80FDF7E9FB8146A8794FF04C
:10398000010A20B12868864227D3361A29E02E6022
:1039900085F806A05FB1042F11D02068082F016AB6
:1039A00015D021F42041016202F0BAF949E0206803
:1039B000016A21F00A01016202F0B2F94EE02068CA
:1039C000016A21F0A001016202F0AAF953E021F49A
:1039D0002061016202F0A4F958E0A8EB000006445F
:1039E000761C4FF00008B6F5803F1AD201F006FAB7
:1039F000834601F003FA294902460B6840F6340079
:103A0000934202D30A6802B1086832465E4508D381
:103A10001146864205D8A980C5F8089085F80C8023
:103A200001E085F80CA085F8068087B1042F1BD033
:103A30002068082F016A24D021F42041016202F09D
:103A400065F901462068026A42EA013123E02068F4
:103A5000016A21F00A01016202F058F921680A6A3C
:103A600010430862BDE8F09F2068016A21F0A001C0
:103A7000016202F04BF901462068026A42EA011134
:103A800009E021F42061016202F040F9014620685A
:103A9000026A42EA01210162E4E700000C02002010
:103AA0000148007B70470000B8DF00200148007B20
:103AB00070470000A8DF00200148007B704700002D
:103AC00098DF00200D4A0168914215D1017F01293C
:103AD00008D002290BD004290ED10146082208483B
:103AE000FFF73CBF0146064800222038F8E70146B0
:103AF000034804221038F3E7704700000008004034
:103B0000B8DF002070B5044680680D46002806D056
:103B1000FDF71CFBA168401AA84201D8012070BD26
:103B2000002070BD01460148FFF7ECBFB8DF002060
:103B300001460148FFF7E6BFA8DF00200146014823
:103B4000FFF7E0BF98DF0020054810B502694FF489
:103B50002F7101209047BDE81040002003F04CB8C1
:103B6000B800002010B54FF0E020006903F0D4FC4D
:103B7000012803D0BDE8104003F0E2B910BD0000F9
:103B800030B593B030216846FCF7C6FB14210CA871
:103B9000FCF7C2FB1D480025016841F0805101601F
:103BA000006800F0805011901948016841F480418C
:103BB00001600068022400F4804011900120009010
:103BC000000401908001CDE9064004200890A8205F
:103BD000CDE9090407200B906846FDF791FC08B178
:103BE00072B6FEE70CA90F2081E831004FF4A05017
:103BF0000F904FF48050109005210CA8FDF776FB34
:103C0000002801D072B6FEE713B030BD4038024044
:103C1000007000400248016841F470010160704783
:103C200088ED00E00148FEF767B90000C8020020F7
:103C30000148FEF761B90000F0040020F0B5026809
:103C4000294C2A4D2A4E2B4F2B4B4FF0804CA04233
:103C500009D0604507D0A84205D0B04203D0B84291
:103C600001D0984204D122F0700E4A6842EA0E0256
:103C7000A0421BD0604519D0A84217D0B04215D041
:103C8000B84213D0984211D01C4DA8420ED01C4D02
:103C9000A8420BD01B4DA84208D01B4DA84205D00E
:103CA0001A4DA84202D01A4DA84203D122F4407501
:103CB000CA682A434D6922F080022A4302608A685A
:103CC000C2620A688262A04201D0984201D10969A9
:103CD0000163012141610169C90703D0016921F034
:103CE00001010161F0BD000000000140000400403E
:103CF00000080040000C004000040140004001406A
:103D0000004401400048014000180040001C0040F1
:103D10000020004010B501F01F030121046A994002
:103D20008C430462016A9A401143016210BD10B5D0
:103D3000846842EA032224F47F440A4322438260D7
:103D400010BD826822F070020A4342F007018160D0
:103D500070470000F0B5036A026A22F001020262B5
:103D600042688469124E24F073050C682C4323F0DA
:103D700002058B682B430D4DA84201D0B04205D1FE
:103D800023F00807CB683B4323F00403A84201D08B
:103D9000B04205D14D6922F4407215438A692A4325
:103DA00042608461496841630362F0BD00000140E4
:103DB00000040140F0B5026A036A23F010030362B5
:103DC000436884690D6824F4E64444EA05248D6858
:103DD00022F0200242EA05120F4D104EA84201D0F7
:103DE000B04206D1CF6822F0800242EA071222F0E8
:103DF0004002A84201D0B04207D14D6923F440638C
:103E000043EA85038D6943EA850343608461496819
:103E100081630262F0BD0000000001400004014027
:103E2000F0B5026A036A23F4807303624368C469CD
:103E300022F4007224F073050C68124E2C438D6836
:103E400042EA05220E4DA84201D0B04206D1CF6809
:103E500022F4006242EA072222F48062A84201D0E2
:103E6000B04207D14D6923F4405343EA05138D69ED
:103E700043EA05134360C4614968C1630262F0BD4F
:103E8000000001400004014030B5046A026A22F4D7
:103E9000805202624268C3690D6823F4E64343EA34
:103EA00005238D6824F4005444EA0534084DA842E3
:103EB00002D0084DA84204D14D6922F4804242EA62
:103EC00085124260C36149680164046230BD00002C
:103ED000000001400004014010B5036A046A24F0A8
:103EE00001040462846924F0F00444EA021423F01B
:103EF0000A020A438461026210BD000070B5056ABF
:103F0000046A24F0010404628469154EB04214D09E
:103F1000B0F1804F11D0134EB0420ED0124EB042CD
:103F20000BD0124EB04208D0114EB04205D0114E07
:103F3000B04202D0104EB04203D124F00304144327
:103F400001E044F001041A0724F0F00444EA12628C
:103F500025F00A0301F00A0119438261016270BD74
:103F6000000001400004004000080040000C004038
:103F700000040140004001400018004010B5036AF1
:103F8000046A24F010040462846923F0A00324F47A
:103F9000704444EA023243EA01118261016210BDB9
:103FA00030B5046A056A25F010050562856925F4B7
:103FB000407545EA022222F470454FF6FF7202EA8C
:103FC000033224F0A0032A43A02404EA0111194378
:103FD0008261016230BD00000148FEF76BB900004C
:103FE000A003002010B5806B0021C185C184FEF7BD
:103FF00060F910BD70B5846B2068406994F8411079
:10400000C0F3C0100025212904D118B1E584204651
:1040100000F062F82068406994F84210C0F3801004
:10402000222904D118B1E585204600F02EF8606CF5
:1040300040F0100060642046FEF73BF970BD10B5FB
:104040000146806B09680968C90516D40021C1843E
:104050000168143151E8002F22F0800241E800236A
:10406000002BF5D101680C3151E8002F42F04002DD
:1040700041E80023002BF5D110BDFEF7E3FB10BD96
:1040800010B5806BFEF7DFFB10BD01680C3151E805
:10409000002F22F4907241E80023002BF5D1016833
:1040A000143151E8002F22F0010241E80023002BD7
:1040B000F5D1016B012909D101680C3151E8002FBC
:1040C00022F0100241E80023002BF5D1202180F8D6
:1040D000421000210163704701680C3151E8002F44
:1040E00022F0C00241E80023002BF5D1202180F806
:1040F0004110704708B590F84210222901D00220E3
:1041000008BD82684FF480539A4201D1016921B100
:10411000816A9A421BD04AB10AE00268816A5268F9
:10412000C2F308020A80816A891C08E0026972B140
:104130000268526802F07F020A70816A491C81623B
:10414000C18D491E0904090CC18503D01BE002681A
:104150005268F1E70168CA6822F02002CA6001686B
:10416000CA6822F48072CA6001684A6922F00102BA
:104170004A61202180F8421000214163026B012A2C
:1041800003D0FEF7ABFA002008BD016301680C31D3
:1041900051E8002F22F0100241E80023002BF5D156
:1041A00001680A68D20602D50A6849680091818DC3
:1041B000FEF77EF8E7E7000070B504460068016985
:1041C000E26821F44051114301612169A068E2696C
:1041D00008436169114308432168CA6849F20C63C6
:1041E0009A430243CA6020684169A26921F4407180
:1041F0001143416131492068884202D030498842E8
:1042000002D1FDF73DF901E0FDF72AF9E26900234B
:10421000192164253226B2F5004F626828D0A0FB30
:104220000101930F9200FCF72DF80146B0FBF5F069
:104230006FF01802504301EB800006EB0010B0FB5A
:10424000F5F000F0F002B1FBF5F002EB0012B1FB6B
:10425000F5F06FF01803584301EB800006EB0010F7
:10426000B0FBF5F000F00F0021681044886070BDCD
:10427000A0FB010192185B41FCF704F80146B0FB7A
:10428000F5F00201B1FBF5F06FF01803584301EBB4
:10429000800006EBC000B0FBF5F000F0F80002EB88
:1042A0004002B1FBF5F0584301EB800006EBC00083
:1042B000B0FBF5F000F00700D6E700000010014069
:1042C0000014014081628285C2850021416422215F
:1042D00080F84210016921B10168CA6842F4807215
:1042E000CA6001684A6942F001024A610068C16817
:1042F00041F02001C160002070472DE9F843984645
:1043000017460D460446089E24E0701C22D0FCF798
:104310001DFFA0EB0800B0421AD8CEB12068C168DA
:10432000490717D5802D15D0402D13D00168C943FA
:1043300009070FD401680025406800902046FFF768
:10434000A4FE0820606484F840500120BDE8F88392
:104350000320FBE72068006835EA000004D0002055
:10436000B842D2D00020F1E70120F9E70148FDF77B
:10437000A1BF0000E803002010B50022012801D9E8
:10438000002010BD074B002103EB8104491C34F8C9
:104390001040C9B222445029F6D35020B2FBF0F0AD
:1043A00080B210BD20DE0020FEE700000FB4054BF8
:1043B00010B503A9044A029800F06EFA10BC5DF82B
:1043C00014FB0000294C00081802002041000802DC
:1043D00018BF04200A0E18BF40F001004FF07F42C2
:1043E00032EA010108BF40F00200012808BF0520A1
:1043F00070470907090E002804DB00F1E02080F86F
:104400000014704700F00F0000F1E02080F8141D48
:104410007047000010B54FF00E412DED028BB0EE4D
:10442000408A18EE100A01EB4001B1F1145F5CD232
:104430004FF0FE41B1EB400F24BF9FED400AF0EE7C
:10444000400A12D210F0004F19BFDFED3D0A9FED78
:104450003D0ADFED3D0A9FED3D0AFFEE001A81EEB9
:10446000881AB0EE418A18EE100A4FF0FC41B1EB09
:10447000400F1BD210F0004FDFED351A9FED352AAB
:104480001DBFBEEE001A70EEE10A30EE420AB6EE33
:10449000001A04BF70EEA10A30EE020A38EE412A7B
:1044A000F7EE001A48EE011A82EE218ADFED2A1A91
:1044B0009FED2A2A28EE081A01EE212ADFED281A9C
:1044C00041EE021A9FED272A01EE212ADFED261A7E
:1044D00041EE021A28EE011A01EE210A30EE080A16
:1044E000BDEC028B30EE200A10BD4FF0E441B1EB81
:1044F000400F0CD918EE100AFFF768FF042808BF18
:1045000000F002F9B0EE480ABDEC028B10BD4FF08E
:104510007F41B1EB400F07D2B0EE480ABDEC028BF1
:10452000BDE8104000F0E4B810F0004F14BF9FED5C
:104530000F0A9FED0F0ABDEC028B10BD00000000BA
:104540000000C9BF22AAFDB90000C93F22AAFD3957
:104550000060ED3EC30ACE372DAD65BD8FB8D53DA9
:104560000FB511BE61C84C3EA8AAAABEDB0FC9BFD9
:10457000DB0FC93F00B510EE101A2DED028B81B094
:104580004D4A6846B2EB410F3CD94FF0E640B0EBE4
:10459000410F94BF00204FF0FF3000900098B0EE24
:1045A000408A00285FDB28EE080ADFED440A9FED11
:1045B000441A00EE201ADFED430A40EE010A9FED97
:1045C000421A00EE201ADFED410A10F0010F40EE12
:1045D000010A9FED3F1A00EE201A61EE000AB0EECC
:1045E000480A08EE200A02BF01B0BDEC028B00BDF4
:1045F000BFEE001A01B0C1EE000ABDEC028BB0EEB6
:10460000600A00BD334B21F00042934228D911F0DB
:10461000004FDFED310A20EE201ADFED300A19BF1E
:1046200031EE601A71EE200A31EE201A71EE600A46
:10463000BDEEE01A11EE100A9FED291A00F00300FA
:1046400000EEC10A9FED271A009000EEC10A9FED0F
:10465000261A00EEC10A9FED251A00EEC10A9DE759
:1046600000F05AF89AE718EE100A4000B0F17F4FB8
:104670000DD218EE100AFFF7A9FE042808BF00F0BB
:1046800043F8B0EE480A01B0BDEC028B00BD09D181
:10469000012000F0FBF801B0BDEC028B5DF804EBEB
:1046A00000F02AB801B0B0EE480ABDEC028B5DF80C
:1046B00004EB00F01DB80000B61F927EBBE9223C5F
:1046C0000C6D063B8A76CE3CACB5593D35A1083E13
:1046D00029AAAA3E490E494683F9223F0000004B11
:1046E0000000C93F00A0FD390020A2331A61342C1C
:1046F00030EE000A70470000DFED020A80EEA00AEB
:1047000070470000000000009FED020A20EE000A42
:1047100070470000000000102DE9F0014FF07F42CB
:10472000B2EB410F9FBF4FF0FF310160BDE8F001D8
:1047300070474FF0004242EA0123C1F3C752783A72
:10474000551112F01F0C434CCCF120067C44C1F3F0
:10475000C752A2F178024FEA621204EB820254F8C7
:10476000254008BFD2E9015612D0556804FA0CF46E
:1047700025FA06F73C43976805FA0CF527FA06F880
:10478000D26807FA0CFCF24045EA08054CEA02063A
:10479000A4FB034CA5FB0352A6FB03631D449D42EF
:1047A00034BF012600261319334416B1934202D9AF
:1047B00003E0934201D2012200E00022624402F1B0
:1047C000200C9206DC0C42EA443200EE102A5B0315
:1047D000DFED210AF8EEC01A00EE103A4FEA9C1CF9
:1047E00011F0004FB8EE400AC0F800C020EE201AC9
:1047F00000EE105ADFED190AB8EE400A20EE200A4A
:1048000071EE810A70EE800A10EE902A02F50062C5
:104810006FF30B0200EE902A70EEE11A31EEC11A2E
:10482000DFED101A30EE411A9FED0D0A20EE800ADE
:1048300001EE210A9FED0C1A00EE810A04BFBDE8CB
:10484000F0017047CCF180510160BDE8F001B1EE9C
:10485000400A7047DC3B0000000000360000802C5E
:1048600022AAFD29DB0FC92F0000C92F02E008C8CA
:10487000121F08C1002AFAD170477047002001E0DA
:1048800001C1121F002AFBD17047000001490860D6
:10489000704700001C0200202DE9FF4F8BB09A46A4
:1048A0000F460546002606E025280BD052460D99F6
:1048B00090476D1C761C28780028F5D10FB0304643
:1048C000BDE8F08F0024A0460122604900E00443C7
:1048D00015F8013F203B02FA03F00842F7D128788F
:1048E0002E2817D115F8010F44F004042A280ED001
:1048F0006FF02F022878A0F1300109290AD808EBBF
:10490000880102EB410100EB01086D1CF2E757F84A
:10491000048B6D1C287869283ED006DC0028CDD099
:1049200063280BD0642804D136E0732810D0752892
:104930004BD052460D999047761C85E017F8040B32
:104940008DF8000000208DF80100E946012003E009
:1049500057F8049B4FF0FF3061074FF0000401D47B
:104960000AE0641C44450DDA8442FADB19F80410AD
:104970000029F6D106E0641C8442FCDB19F804101F
:104980000029F8D1264404E019F8010B52460D998C
:104990009047641EF8D257E001CF4FF00A0B002871
:1049A00002DA40422D2102E0210504D52B218DF8A9
:1049B0002410012103E0E10705D02021F7E70DF1E4
:1049C000200908910CE00021F9E701CF4FF00A0B14
:1049D000F9E75946FBF7ABFC01F1300209F8012D6C
:1049E0000028F6D1ADEB090000F1200B600701D4DF
:1049F0004FF00108D84502DDA8EB0B0000E00020D5
:104A00008046002406E009A85246005D0D999047B3
:104A1000641C761C08988442F5DB04E03020524682
:104A20000D999047761CB8F10001A8F10108F5DC5A
:104A300005E019F8010B52460D999047761CBBF121
:104A40000001ABF1010BF4DC6D1C34E70928010017
:104A500010B5040005D000F0EDF910B100F032F906
:104A600004462046BDE81040AFF30080024910B56F
:104A70000880FEF7F7FD10BDE8010020024910B5DF
:104A80004880FEF7FFFD10BDE80100201CB5094A73
:104A90005378012B0DD010705180012050700021EF
:104AA0001820CDE900010B46402203A1054802F081
:104AB000DBFC1CBDB400002062757A7A657254611B
:104AC000736B0000ED4A00087047000000221021BF
:104AD0000148FCF736BB0000000C02400122102107
:104AE0000148FCF72EBB0000000C024070B500240A
:104AF000114D4FF47A7615E0FFF7F0FF68884FF418
:104B00007A714843B0FBF6F002F00AF8FFF7DEFFD7
:104B100068884FF47A714843B0FBF6F002F000F871
:104B2000641CE4B228788442E6D300206870BDE8B3
:104B3000704002F061B80000B4000020102101486C
:104B4000FCF7F7BA000C02404FF47A71884202D3A6
:104B50004900884200D90846704700001248F0EE2C
:104B6000400A416DE1B1406DDFED101A00EE100A10
:104B70000F49B8EE401A81EE210A10EE100A884261
:104B80000BDDF4EEC00AF1EE10FA08DCB1EE400ADB
:104B9000F4EEC00AF1EE10FA01D3B0EE600A7047ED
:104BA0004FF47A70E0E700000C01002000007A4426
:104BB0006F12833A4FF47A71884202D349008842D7
:104BC00000D908467047000001490020486270473C
:104BD0000010004070B50B46050018D0BBB101466F
:104BE0001846C2B101F0A4F804460E48016981B12B
:104BF000D0F8106000F0F8F801463246204600F088
:104C0000E2FF58B100F0F0F884B22C8006E00020FA
:104C100070BD1926EEE701F08BF804466C80204643
:104C200070BD00008C01002013B5054C64230122E7
:104C300069466068FDF77AFD0028F7D100981CBD31
:104C4000000000200948406A81B2094802460388F2
:104C5000D2689942A1EB03031A4402D24FF6FF73C4
:104C60001A44C260018010467047000000100040E6
:104C7000080000200348416F09B1406F704741F2BE
:104C8000883070470C0100200348816B09B1806BAC
:104C9000704740F2891070470C0100200348C16B37
:104CA00009B1C06B70473220704700000C01002032
:104CB0000348C16A09B1C06A70474FF40770704772
:104CC0000C0100200548806D4FF47A71884202D3B0
:104CD0004900884200D9084680B270470C01002084
:104CE00010B500F011F804460648416E39B1406E27
:104CF00080B2FFF729FFA04200D2204610BD40F24B
:104D00007260F5E70C01002010B5FFF7DBFF0446E9
:104D10000648C16D39B1C06D80B2FFF715FFA042E2
:104D200000D2204610BD4FF4C360F5E70C0100200F
:104D300010B500F011F804460648816E39B1806E56
:104D400080B2FFF701FFA04200D9204610BD40F21B
:104D50004650F5E70C01002010B5FFF7B3FF0446FD
:104D60000648016E39B1006E80B2FFF7EDFEA04239
:104D700000D9204610BD4FF4B460F5E70C010020C7
:104D80000548C06E4FF47A71884202D349008842C8
:104D900000D9084680B270470C0100200348C16C5E
:104DA00009B1C06C70473220704700000C01002030
:104DB0000548416C09B1406C7047016D09B1006D47
:104DC00070474FF4FA6070470C0100200548816C71
:104DD00009B1806C7047016D09B1006D70474FF4E7
:104DE000FA6070470C0100200348016A09B1006AAB
:104DF000704740F2DC5070478C0100200348016886
:104E000009B1006870474FF46170704708020020D4
:104E1000054806490068B0FBF1F0002803D00449BA
:104E20004968B1FBF0F070472800002040420F00B5
:104E3000001000E010B59FED230A2DED048B82B029
:104E40008DED000AFFF716FF00EE100A9FED1E9A87
:104E5000B8EE400A80EE098AFFF70CFF1B4CA16FE9
:104E6000D9B1A16F814200D8084600EE100A684609
:104E7000B8EE400AC0EE098AFDF7E6FC002178B1E1
:104E80009DED000AE06FB0EEC00A78B1B4EEE80A1A
:104E9000F1EE10FA11D8E1670FE041F29411E1E769
:104EA000E167002002B0BDEC048B10BDB4EEC80A6F
:104EB000F1EE10FA01DB0120E067E06F0028F1D08D
:104EC0000120EFE70000000000007A440C01002000
:104ED00070B500280FD0FFF737FE0446FFF7F2FE4B
:104EE0000646FFF7FDFE0546FFF722FFB44203D357
:104EF000AC4203D9284670BD8442FCD3204670BD25
:104F000010B500281CD0FFF755FE0446FFF738FF08
:104F10000E490A6F2AB1096F884205D9421A92B226
:104F200004E04FF4FA71F7E74FF47A72084480B264
:104F30004FF4FA61884200D90846944201D21046E3
:104F400010BD8442FCD8204610BD00000C0100209A
:104F5000FCF70AF9FEF714FEFDF72EFEFDF786FDBD
:104F6000FDF7BEFFFDF7A0FFFDF7B4FEFDF70CFF58
:104F7000FDF73EFDFDF72CFFFEF732FBFBF7F0FBE4
:104F8000FDF7EEFCFBF720FB1048FCF773FD104C1F
:104F9000206880472046FBF721FB00210D48FCF7E5
:104FA00025FF04210B48FCF721FF08210948FCF7E5
:104FB0001DFF012208490948FDF782FB00F0C2F9F4
:104FC000FDF782FD00F0D0F9FEE70000100300209D
:104FD000CC000020C802002000000020A003002018
:104FE0002DE9F84FB5EEC00A01250746F1EE10FA9B
:104FF0004348994690468B4604D2A91EB1EE400A1A
:10500000816000E08560FDEEC00A3F4E4FF00C036A
:10501000C0ED000AF8EEE00A30EE600ADFED390A72
:1050200020EE200ABDEEC00A80ED010A30608068E3
:105030000095002801DD2B2200E02D22594638463C
:10504000FEF742F80C240094306843465946026843
:1050500007F10800C0B2FEF77FF8009507EBC8051E
:10506000A81DC0B20C232E225946FEF72DF8306839
:105070004FF00A0A426805F10C00642A33DA07EBA4
:10508000C8071237B9F1030F10D0642A06D2C0B294
:105090000123002259460094FEF75EF8306841680B
:1050A000F8B291FBFAF20094012317E0C0B2012399
:1050B000002259460094FEF74FF830684268F8B273
:1050C0000A2A009416DA012300225946FEF744F812
:1050D0000094306818354268E8B2E5E75946FEF7B3
:1050E0003BF8BDE8F88FB9F1030F05D092FBFAF257
:1050F000C0B200940223F1E7C0B203230094EDE7AD
:1051000014DA002000007A44EC00002010B52DEDE8
:10511000068B00F02DFFF0EE409AFFF73FFE00EE09
:10512000100AB8EE400A9FED3F8A80EE089AB0EE72
:10513000E90AB4EEC90AF1EE10FA05D8BDEC068B07
:10514000BDE81040FFF7BEBDF5EEC09AB7EE00AA6D
:10515000F1EE10FA4FF07E542BDDFFF729FE00EE42
:10516000100AF8EE400A80EE880AB4EEC90AF1EEA1
:1051700010FA09D979EEC90A30EE490A80EE808A20
:1051800018EE100AA04201DDB0EE4A8AFFF7BCFD1E
:1051900000EE100AB8EE409AFFF7A2FD0446FFF7B2
:1051A000B3FD201A00EE100AB8EEC00A08EE009A0D
:1051B0002CE0F1EE698AFFF709FE00EE100AF8EE26
:1051C000400A80EE880AB4EEC90AF1EE10FA09D955
:1051D00078EEC90A30EE490AC0EE808A18EE900ACD
:1051E000A04201DDF0EE4A8AFFF7B6FD00EE100A9C
:1051F000B8EE409AFFF79CFD0446FFF7ADFD201A7C
:1052000000EE100AB8EEC00A08EE809ABCEEC90A99
:10521000BDEC068B10EE100ABDE8104080B2FFF71F
:1052200057BE000000007A4410B52DED068BB0EE9D
:1052300060AA00F09DFEF0EE408AB0EEE88AFFF72B
:105240002DFD00EE100A9FED2F9AF8EE400A80EE39
:10525000890AB4EEC08AF1EE10FA1ED3FFF714FDEE
:1052600000EE100AB8EE400A80EE098AFFF720FD32
:1052700000EE100AB8EE400AC0EE099AB0EE4A0AF3
:10528000FFF76CFC69EE800A80EEA80AFFF7C2F80F
:1052900018EE100A1C49884205DCBDEC068BBDE8FF
:1052A0001040FFF76DBDB4EEC80AF1EE10FA02DD52
:1052B000B0EE480A08E0F1EE480AB4EEE00AF1EE7A
:1052C00010FA01D2B0EE600AC0EE088AFFF758FD6E
:1052D0000E490A6F92B1096F00EE101AB8EE400A3B
:1052E00020EE280ABDEC068BBDEEC00ABDE81040DA
:1052F00010EE101A084480B2FFF702BE4FF4FA71A4
:10530000EAE7000000007A446F12833A0C010020A3
:1053100070B50B48416A89B100F1E404217D69B19F
:10532000816A49B1D0F82850FBF710FF6168401A34
:10533000A84203D8012070BDC825F5E7002070BD44
:105340000C010020EFF3058010B16FF005007047ED
:105350000448016811B14FF0FF307047012101602E
:10536000002070478400002010B5EFF3058010B1D5
:105370006FF0050010BD08480168012902D04FF008
:10538000FF3010BD054A002182F8141D0221016082
:1053900001F0BCFC002010BD840000200BE000E008
:1053A0002DE9FF414FEA01034FF00005EFF30581BE
:1053B000039549BB40B38027182100244AB31668DF
:1053C00006B1344696691EB13146761E382E02D299
:1053D0001679F60703D0002004B0BDE8F0815669C5
:1053E00006B1B708D2F808C0BCF1000F0DD0D568DF
:1053F000602D18D312693AB136B18DE806103A46DD
:10540000214602F05EF803900DE0D6685EB912699D
:105410004AB903AACDE90012BAB2214602F024F833
:10542000012800D003950398D6E700002DE9F0414C
:10543000134C0F460546E6682068001D01F018FA77
:10544000681C07D137B12168BDE8F0410D48091D3E
:1054500001F082BA20683544B5424560216805D222
:10546000206CBDE8F041091D01F05EBAE06B091D3A
:1054700001F05AFAA06A854200D2A562BDE8F08127
:105480002C000020280A00202DE9F041054601F0FB
:105490006FFA2D4CA068401CA06020682B4F10B103
:1054A000606930B32BE02560A068012827D1002671
:1054B00006EB860007EB800001F028FA761C382EF8
:1054C000F6D3234801F022FA2148143001F01EFAE5
:1054D0001F48283001F01AFA1D483C3001F016FA36
:1054E0001B48503001F012FA1948E0631430206470
:1054F00005E02068E96AC06A884200D82560606AD1
:10550000401C60626864E86A2169884200D92061B1
:1055100000EB800007EB8000291D01F01DFA01F06F
:1055200047FA606900280CD02068E96AC06A88429E
:1055300007D208494FF080500860BFF34F8FBFF388
:105540006F8FBDE8F08100002C000020780500205E
:10555000D809002004ED00E038B501F009FA104C3C
:105560002068C8B90F4801F0D1F90E48143001F095
:10557000CDF90C48E060143020610A4B0020F03B6C
:10558000009003F1500210210A2001F010FD20606C
:1055900010B105A101F08EFABDE8384001F008BA5B
:1055A000700000202C0B0020546D72510000000090
:1055B00030B4026C0B46002A0BD0C1681144C160A4
:1055C0008468A14201D30168C16030BC1846FAF773
:1055D0008ABE30BC70472DE9F041856B1746044602
:1055E0000026026C82B1C7B1E068FAF77CFEE16880
:1055F000206C091AE1602268914202D2A168081A5F
:10560000E060022F16D017E02068A8B9A06801F06A
:10561000FBFF06460020A0600EE06068FAF763FE1C
:10562000216C606808446060A168884204D32068E7
:10563000606001E005B16D1E6D1CA5633046BDE8DC
:10564000F08110B5044690F85D0058B101280CD0E7
:1056500002280FD0502080F31188BFF34F8FBFF383
:105660006F8FFEE7206B01F0B7F92046BDE81040D0
:1056700001F0B2B910BD000010484FF44841420794
:1056800006D0C01D0D4920F00700411AC1F5484160
:105690000B4A00230144C2E900030839183A21F0FB
:1056A000070111604B600B600B1AC0E90013936097
:1056B0004FF000405360506170470000141200200A
:1056C000A0000020154E164CA6F29C474FF08058C3
:1056D000DFF8509012E000BF01F04AF9F068C568A9
:1056E000281D01F0C5F8A068401EA0606068401E3B
:1056F000606001F05DF92846FFF7A3FF60680028AD
:10570000EAD13868012805D9C9F80080BFF34F8F66
:10571000BFF36F8F01F0D6F8F0E70000140A002005
:105720002C00002004ED00E070B51D46049C51B132
:10573000C4F80020C4E90F010121204601F06AFCF1
:1057400084F84C5070BD2460F4E700002DE9F05F50
:105750008846DDE90B941546834691009A460A9ED9
:10576000A522206BFAF7D1FD6FF00301206B01EB4E
:105770008501084420F00707780707D0502080F300
:105780001188BFF34F8FBFF36F8FFEE70025B8F18D
:10579000000F0FD05FF00000221818F8001082F8F8
:1057A000341018F8001011B1401C1028F4D384F8FC
:1057B000435001E084F83450382E00D33726E66297
:1057C000C4E91365201D01F0ACF804F1180001F0E4
:1057D000A8F82461C6F138006462A0616565A5651A
:1057E00084F85C5052465946384600F079FA2060F9
:1057F000B9F1000F01D0C9F80040BDE8F09F0000EA
:1058000030B5114900E011460A688242FBD34B686B
:105810005C18844203D140681844486008464368D5
:105820001C18944209D1084C183C2468A24209D0A3
:1058300052681A4442600A6812680260814200D0CD
:10584000086030BD0460F9E7A000002070B50024B6
:1058500041600B4D0061914206D8D11A8269914294
:1058600006D2011D286907E09A4203D2994201D36A
:10587000012403E0011DE86801F056F8204670BDE0
:105880007000002010B5044601F072F8A06B28B13A
:105890005FF0000401F08CF8204610BD0124F9E708
:1058A00030B589B03C4D6EE00498002806DADDE999
:1058B0000601059A90470498002864DB069C6069FD
:1058C00010B1201D00F0D4FF03A800F0D7F8024665
:1058D00004980A2857D2DFE800F00505052D334A61
:1058E00005052D3394F8280040F0010084F82800C5
:1058F0000599A069059B01442046FFF7A7FF68B3FF
:10590000216A2046884794F8280040073BD50020AC
:1059100000900598A169002342181946204601F01D
:105920007DFFD8B9502080F31188BFF34F8FBFF3AC
:105930006F8FFEE714F8280F20F00100207022E09E
:1059400094F8280040F0010084F828000598A06130
:1059500028B1811813462046FFF778FF13E0502046
:1059600080F31188BFF34F8FBFF36F8FFEE794F87A
:105970002800810703D4204601F02EF803E020F030
:10598000010084F82800002204A9286801F096FC90
:10599000002889D109B030BD700000202DE9FC41FC
:1059A0000F46054601F0F8F901A800F067F8044633
:1059B000019818B101F0A0FEBDE8FC81254EAFB101
:1059C00030690068D0B30027291B3A46306801F0DF
:1059D00085F801F091FE0028EED11F494FF080506C
:1059E0000860BFF34F8FBFF36F8FE5E7A542EBD899
:1059F00001F082FEF0682746C068C468201D00F0F0
:105A000037FF94F82800410719D5A0692B464119A2
:105A10003A462046FFF71AFFA8B100200346014688
:105A200000902A46204601F0F9FE60B9502080F32C
:105A30001188BFF34F8FBFF36F8FFEE707E020F0B1
:105A4000010084F82800216A20468847B4E701272E
:105A5000BAE700007000002004ED00E00648C16BCA
:105A6000096829B1C16BC968C96849688162704712
:105A70004FF0FF31FAE700002C00002070B505461A
:105A800001F058FD064E0446B068844203D200F08F
:105A900009F8012000E0002028602046B46070BDB5
:105AA00070000020F8B5194D20E0C068C468066891
:105AB000201D00F0DDFE216A2046884794F828006A
:105AC000400713D5A0693044B04206D92461606014
:105AD000211DE86800F028FF08E000200346014689
